{
  "_format": "hh-sol-artifact-1",
  "contractName": "Auction",
  "sourceName": "contracts/Auction.sol",
  "abi": [
    {
      "inputs": [
        {
          "internalType": "address",
          "name": "_bidToken",
          "type": "address"
        },
        {
          "internalType": "uint256",
          "name": "_mintAmount",
          "type": "uint256"
        },
        {
          "internalType": "uint256",
          "name": "_auctionFrequency",
          "type": "uint256"
        },
        {
          "internalType": "address",
          "name": "_cfc",
          "type": "address"
        },
        {
          "internalType": "string",
          "name": "_name",
          "type": "string"
        },
        {
          "internalType": "string",
          "name": "_symbol",
          "type": "string"
        },
        {
          "internalType": "uint256",
          "name": "_initSupply",
          "type": "uint256"
        }
      ],
      "stateMutability": "nonpayable",
      "type": "constructor"
    },
    {
      "anonymous": false,
      "inputs": [
        {
          "indexed": true,
          "internalType": "address",
          "name": "_src",
          "type": "address"
        },
        {
          "indexed": true,
          "internalType": "address",
          "name": "_dst",
          "type": "address"
        },
        {
          "indexed": false,
          "internalType": "uint256",
          "name": "_amt",
          "type": "uint256"
        }
      ],
      "name": "Approval",
      "type": "event"
    },
    {
      "anonymous": false,
      "inputs": [
        {
          "indexed": false,
          "internalType": "address",
          "name": "_winner",
          "type": "address"
        },
        {
          "indexed": false,
          "internalType": "uint256",
          "name": "_amount",
          "type": "uint256"
        }
      ],
      "name": "AuctionClosed",
      "type": "event"
    },
    {
      "anonymous": false,
      "inputs": [
        {
          "indexed": false,
          "internalType": "uint256",
          "name": "_endDate",
          "type": "uint256"
        }
      ],
      "name": "NewAuctionStarted",
      "type": "event"
    },
    {
      "anonymous": false,
      "inputs": [
        {
          "indexed": false,
          "internalType": "address",
          "name": "_bidder",
          "type": "address"
        },
        {
          "indexed": false,
          "internalType": "uint256",
          "name": "_amount",
          "type": "uint256"
        }
      ],
      "name": "NewTopBid",
      "type": "event"
    },
    {
      "anonymous": false,
      "inputs": [
        {
          "indexed": true,
          "internalType": "address",
          "name": "_src",
          "type": "address"
        },
        {
          "indexed": true,
          "internalType": "address",
          "name": "_dst",
          "type": "address"
        },
        {
          "indexed": false,
          "internalType": "uint256",
          "name": "_amt",
          "type": "uint256"
        }
      ],
      "name": "Transfer",
      "type": "event"
    },
    {
      "inputs": [
        {
          "internalType": "address",
          "name": "_src",
          "type": "address"
        },
        {
          "internalType": "address",
          "name": "_dst",
          "type": "address"
        }
      ],
      "name": "allowance",
      "outputs": [
        {
          "internalType": "uint256",
          "name": "",
          "type": "uint256"
        }
      ],
      "stateMutability": "view",
      "type": "function"
    },
    {
      "inputs": [
        {
          "internalType": "address",
          "name": "_spender",
          "type": "address"
        },
        {
          "internalType": "uint256",
          "name": "_amount",
          "type": "uint256"
        }
      ],
      "name": "approve",
      "outputs": [
        {
          "internalType": "bool",
          "name": "",
          "type": "bool"
        }
      ],
      "stateMutability": "nonpayable",
      "type": "function"
    },
    {
      "inputs": [],
      "name": "auctionFrequency",
      "outputs": [
        {
          "internalType": "uint256",
          "name": "",
          "type": "uint256"
        }
      ],
      "stateMutability": "view",
      "type": "function"
    },
    {
      "inputs": [
        {
          "internalType": "address",
          "name": "_user",
          "type": "address"
        }
      ],
      "name": "balanceOf",
      "outputs": [
        {
          "internalType": "uint256",
          "name": "",
          "type": "uint256"
        }
      ],
      "stateMutability": "view",
      "type": "function"
    },
    {
      "inputs": [
        {
          "internalType": "uint256",
          "name": "_amount",
          "type": "uint256"
        }
      ],
      "name": "bid",
      "outputs": [],
      "stateMutability": "nonpayable",
      "type": "function"
    },
    {
      "inputs": [],
      "name": "bidToken",
      "outputs": [
        {
          "internalType": "contract IERC20",
          "name": "",
          "type": "address"
        }
      ],
      "stateMutability": "view",
      "type": "function"
    },
    {
      "inputs": [],
      "name": "charonFeeContract",
      "outputs": [
        {
          "internalType": "contract ICFC",
          "name": "",
          "type": "address"
        }
      ],
      "stateMutability": "view",
      "type": "function"
    },
    {
      "inputs": [],
      "name": "currentTopBid",
      "outputs": [
        {
          "internalType": "uint256",
          "name": "",
          "type": "uint256"
        }
      ],
      "stateMutability": "view",
      "type": "function"
    },
    {
      "inputs": [],
      "name": "decimals",
      "outputs": [
        {
          "internalType": "uint8",
          "name": "",
          "type": "uint8"
        }
      ],
      "stateMutability": "pure",
      "type": "function"
    },
    {
      "inputs": [],
      "name": "endDate",
      "outputs": [
        {
          "internalType": "uint256",
          "name": "",
          "type": "uint256"
        }
      ],
      "stateMutability": "view",
      "type": "function"
    },
    {
      "inputs": [],
      "name": "mintAmount",
      "outputs": [
        {
          "internalType": "uint256",
          "name": "",
          "type": "uint256"
        }
      ],
      "stateMutability": "view",
      "type": "function"
    },
    {
      "inputs": [],
      "name": "name",
      "outputs": [
        {
          "internalType": "string",
          "name": "",
          "type": "string"
        }
      ],
      "stateMutability": "view",
      "type": "function"
    },
    {
      "inputs": [],
      "name": "startNewAuction",
      "outputs": [],
      "stateMutability": "nonpayable",
      "type": "function"
    },
    {
      "inputs": [],
      "name": "symbol",
      "outputs": [
        {
          "internalType": "string",
          "name": "",
          "type": "string"
        }
      ],
      "stateMutability": "view",
      "type": "function"
    },
    {
      "inputs": [],
      "name": "topBidder",
      "outputs": [
        {
          "internalType": "address",
          "name": "",
          "type": "address"
        }
      ],
      "stateMutability": "view",
      "type": "function"
    },
    {
      "inputs": [],
      "name": "totalSupply",
      "outputs": [
        {
          "internalType": "uint256",
          "name": "",
          "type": "uint256"
        }
      ],
      "stateMutability": "view",
      "type": "function"
    },
    {
      "inputs": [
        {
          "internalType": "address",
          "name": "_to",
          "type": "address"
        },
        {
          "internalType": "uint256",
          "name": "_amount",
          "type": "uint256"
        }
      ],
      "name": "transfer",
      "outputs": [
        {
          "internalType": "bool",
          "name": "",
          "type": "bool"
        }
      ],
      "stateMutability": "nonpayable",
      "type": "function"
    },
    {
      "inputs": [
        {
          "internalType": "address",
          "name": "_from",
          "type": "address"
        },
        {
          "internalType": "address",
          "name": "_to",
          "type": "address"
        },
        {
          "internalType": "uint256",
          "name": "_amount",
          "type": "uint256"
        }
      ],
      "name": "transferFrom",
      "outputs": [
        {
          "internalType": "bool",
          "name": "",
          "type": "bool"
        }
      ],
      "stateMutability": "nonpayable",
      "type": "function"
    }
  ],
  "bytecode": "0x60806040523480156200001157600080fd5b50604051620024ad380380620024ad833981810160405281019062000037919062000467565b828281600090816200004a919062000799565b5080600190816200005c919062000799565b50505086600660006101000a81548173ffffffffffffffffffffffffffffffffffffffff021916908373ffffffffffffffffffffffffffffffffffffffff160217905550856008819055508460078190555083600560006101000a81548173ffffffffffffffffffffffffffffffffffffffff021916908373ffffffffffffffffffffffffffffffffffffffff1602179055508442620000fd9190620008af565b600a819055506200011533826200012260201b60201c565b5050505050505062000918565b80600360008473ffffffffffffffffffffffffffffffffffffffff1673ffffffffffffffffffffffffffffffffffffffff168152602001908152602001600020546200016f9190620008af565b600360008473ffffffffffffffffffffffffffffffffffffffff1673ffffffffffffffffffffffffffffffffffffffff1681526020019081526020016000208190555080600254620001c29190620008af565b6002819055508173ffffffffffffffffffffffffffffffffffffffff16600073ffffffffffffffffffffffffffffffffffffffff167fddf252ad1be2c89b69c2b068fc378daa952ba7f163c4a11628f55a4df523b3ef83604051620002289190620008fb565b60405180910390a35050565b6000604051905090565b600080fd5b600080fd5b600073ffffffffffffffffffffffffffffffffffffffff82169050919050565b6000620002758262000248565b9050919050565b620002878162000268565b81146200029357600080fd5b50565b600081519050620002a7816200027c565b92915050565b6000819050919050565b620002c281620002ad565b8114620002ce57600080fd5b50565b600081519050620002e281620002b7565b92915050565b600080fd5b600080fd5b6000601f19601f8301169050919050565b7f4e487b7100000000000000000000000000000000000000000000000000000000600052604160045260246000fd5b6200033d82620002f2565b810181811067ffffffffffffffff821117156200035f576200035e62000303565b5b80604052505050565b60006200037462000234565b905062000382828262000332565b919050565b600067ffffffffffffffff821115620003a557620003a462000303565b5b620003b082620002f2565b9050602081019050919050565b60005b83811015620003dd578082015181840152602081019050620003c0565b60008484015250505050565b600062000400620003fa8462000387565b62000368565b9050828152602081018484840111156200041f576200041e620002ed565b5b6200042c848285620003bd565b509392505050565b600082601f8301126200044c576200044b620002e8565b5b81516200045e848260208601620003e9565b91505092915050565b600080600080600080600060e0888a0312156200048957620004886200023e565b5b6000620004998a828b0162000296565b9750506020620004ac8a828b01620002d1565b9650506040620004bf8a828b01620002d1565b9550506060620004d28a828b0162000296565b945050608088015167ffffffffffffffff811115620004f657620004f562000243565b5b620005048a828b0162000434565b93505060a088015167ffffffffffffffff81111562000528576200052762000243565b5b620005368a828b0162000434565b92505060c0620005498a828b01620002d1565b91505092959891949750929550565b600081519050919050565b7f4e487b7100000000000000000000000000000000000000000000000000000000600052602260045260246000fd5b60006002820490506001821680620005ab57607f821691505b602082108103620005c157620005c062000563565b5b50919050565b60008190508160005260206000209050919050565b60006020601f8301049050919050565b600082821b905092915050565b6000600883026200062b7fffffffffffffffffffffffffffffffffffffffffffffffffffffffffffffffff82620005ec565b620006378683620005ec565b95508019841693508086168417925050509392505050565b6000819050919050565b60006200067a620006746200066e84620002ad565b6200064f565b620002ad565b9050919050565b6000819050919050565b620006968362000659565b620006ae620006a58262000681565b848454620005f9565b825550505050565b600090565b620006c5620006b6565b620006d28184846200068b565b505050565b5b81811015620006fa57620006ee600082620006bb565b600181019050620006d8565b5050565b601f82111562000749576200071381620005c7565b6200071e84620005dc565b810160208510156200072e578190505b620007466200073d85620005dc565b830182620006d7565b50505b505050565b600082821c905092915050565b60006200076e600019846008026200074e565b1980831691505092915050565b60006200078983836200075b565b9150826002028217905092915050565b620007a48262000558565b67ffffffffffffffff811115620007c057620007bf62000303565b5b620007cc825462000592565b620007d9828285620006fe565b600060209050601f831160018114620008115760008415620007fc578287015190505b6200080885826200077b565b86555062000878565b601f1984166200082186620005c7565b60005b828110156200084b5784890151825560018201915060208501945060208101905062000824565b868310156200086b578489015162000867601f8916826200075b565b8355505b6001600288020188555050505b505050505050565b7f4e487b7100000000000000000000000000000000000000000000000000000000600052601160045260246000fd5b6000620008bc82620002ad565b9150620008c983620002ad565b9250828201905080821115620008e457620008e362000880565b5b92915050565b620008f581620002ad565b82525050565b6000602082019050620009126000830184620008ea565b92915050565b611b8580620009286000396000f3fe608060405234801561001057600080fd5b50600436106101165760003560e01c806379946b3e116100a2578063afcfd22b11610071578063afcfd22b146102d3578063c24a0f8b146102f1578063dd62ed3e1461030f578063dfafd4fd1461033f578063fdd68ef81461035d57610116565b806379946b3e1461025d5780638369d9e21461026757806395d89b4114610285578063a9059cbb146102a357610116565b806323b872dd116100e957806323b872dd146101a5578063313ce567146101d5578063454a2ab3146101f35780635a2bcc181461020f57806370a082311461022d57610116565b806301333f061461011b57806306fdde0314610139578063095ea7b31461015757806318160ddd14610187575b600080fd5b61012361037b565b60405161013091906112dc565b60405180910390f35b6101416103a1565b60405161014e9190611387565b60405180910390f35b610171600480360381019061016c9190611410565b610433565b60405161017e919061146b565b60405180910390f35b61018f610525565b60405161019c9190611495565b60405180910390f35b6101bf60048036038101906101ba91906114b0565b61052f565b6040516101cc919061146b565b60405180910390f35b6101dd610859565b6040516101ea919061151f565b60405180910390f35b61020d6004803603810190610208919061153a565b610862565b005b610217610b5e565b6040516102249190611495565b60405180910390f35b61024760048036038101906102429190611567565b610b64565b6040516102549190611495565b60405180910390f35b610265610bad565b005b61026f610e7b565b60405161027c9190611495565b60405180910390f35b61028d610e81565b60405161029a9190611387565b60405180910390f35b6102bd60048036038101906102b89190611410565b610f13565b6040516102ca919061146b565b60405180910390f35b6102db610f2a565b6040516102e891906115f3565b60405180910390f35b6102f9610f50565b6040516103069190611495565b60405180910390f35b6103296004803603810190610324919061160e565b610f56565b6040516103369190611495565b60405180910390f35b610347610fdd565b604051610354919061166f565b60405180910390f35b610365611003565b6040516103729190611495565b60405180910390f35b600b60009054906101000a900473ffffffffffffffffffffffffffffffffffffffff1681565b6060600080546103b0906116b9565b80601f01602080910402602001604051908101604052809291908181526020018280546103dc906116b9565b80156104295780601f106103fe57610100808354040283529160200191610429565b820191906000526020600020905b81548152906001019060200180831161040c57829003601f168201915b5050505050905090565b600081600460003373ffffffffffffffffffffffffffffffffffffffff1673ffffffffffffffffffffffffffffffffffffffff16815260200190815260200160002060008573ffffffffffffffffffffffffffffffffffffffff1673ffffffffffffffffffffffffffffffffffffffff168152602001908152602001600020819055508273ffffffffffffffffffffffffffffffffffffffff163373ffffffffffffffffffffffffffffffffffffffff167f8c5be1e5ebec7d5bd14f71427d1e84f3dd0314c0f7b2291e5b200ac8c7c3b925846040516105139190611495565b60405180910390a36001905092915050565b6000600254905090565b60008373ffffffffffffffffffffffffffffffffffffffff163373ffffffffffffffffffffffffffffffffffffffff1614806105e75750600460008573ffffffffffffffffffffffffffffffffffffffff1673ffffffffffffffffffffffffffffffffffffffff16815260200190815260200160002060003373ffffffffffffffffffffffffffffffffffffffff1673ffffffffffffffffffffffffffffffffffffffff168152602001908152602001600020548211155b610626576040517f08c379a000000000000000000000000000000000000000000000000000000000815260040161061d90611736565b60405180910390fd5b610631848484611009565b8373ffffffffffffffffffffffffffffffffffffffff163373ffffffffffffffffffffffffffffffffffffffff161461084e5781600460008673ffffffffffffffffffffffffffffffffffffffff1673ffffffffffffffffffffffffffffffffffffffff16815260200190815260200160002060003373ffffffffffffffffffffffffffffffffffffffff1673ffffffffffffffffffffffffffffffffffffffff168152602001908152602001600020546106ec9190611785565b600460008673ffffffffffffffffffffffffffffffffffffffff1673ffffffffffffffffffffffffffffffffffffffff16815260200190815260200160002060003373ffffffffffffffffffffffffffffffffffffffff1673ffffffffffffffffffffffffffffffffffffffff168152602001908152602001600020819055508273ffffffffffffffffffffffffffffffffffffffff163373ffffffffffffffffffffffffffffffffffffffff167f8c5be1e5ebec7d5bd14f71427d1e84f3dd0314c0f7b2291e5b200ac8c7c3b925600460008873ffffffffffffffffffffffffffffffffffffffff1673ffffffffffffffffffffffffffffffffffffffff16815260200190815260200160002060003373ffffffffffffffffffffffffffffffffffffffff1673ffffffffffffffffffffffffffffffffffffffff168152602001908152602001600020546040516108459190611495565b60405180910390a35b600190509392505050565b60006012905090565b600a5442106108a6576040517f08c379a000000000000000000000000000000000000000000000000000000000815260040161089d90611805565b60405180910390fd5b60095481116108ea576040517f08c379a00000000000000000000000000000000000000000000000000000000081526004016108e190611871565b60405180910390fd5b600660009054906101000a900473ffffffffffffffffffffffffffffffffffffffff1673ffffffffffffffffffffffffffffffffffffffff166323b872dd3330846040518463ffffffff1660e01b815260040161094993929190611891565b6020604051808303816000875af1158015610968573d6000803e3d6000fd5b505050506040513d601f19601f8201168201806040525081019061098c91906118f4565b6109cb576040517f08c379a00000000000000000000000000000000000000000000000000000000081526004016109c29061196d565b60405180910390fd5b60006009541115610ada57600660009054906101000a900473ffffffffffffffffffffffffffffffffffffffff1673ffffffffffffffffffffffffffffffffffffffff1663a9059cbb600b60009054906101000a900473ffffffffffffffffffffffffffffffffffffffff166009546040518363ffffffff1660e01b8152600401610a5792919061198d565b6020604051808303816000875af1158015610a76573d6000803e3d6000fd5b505050506040513d601f19601f82011682018060405250810190610a9a91906118f4565b610ad9576040517f08c379a0000000000000000000000000000000000000000000000000000000008152600401610ad090611a02565b60405180910390fd5b5b33600b60006101000a81548173ffffffffffffffffffffffffffffffffffffffff021916908373ffffffffffffffffffffffffffffffffffffffff160217905550806009819055507f1c11e11b6ba23166c1d895fcbb2933eb498d77822e35178fd2bd77a79027f9923382604051610b5392919061198d565b60405180910390a150565b60085481565b6000600360008373ffffffffffffffffffffffffffffffffffffffff1673ffffffffffffffffffffffffffffffffffffffff168152602001908152602001600020549050919050565b600a54421015610bf2576040517f08c379a0000000000000000000000000000000000000000000000000000000008152600401610be990611a6e565b60405180910390fd5b610c20600b60009054906101000a900473ffffffffffffffffffffffffffffffffffffffff1660085461118f565b60006009541115610d8357600660009054906101000a900473ffffffffffffffffffffffffffffffffffffffff1673ffffffffffffffffffffffffffffffffffffffff1663095ea7b3600560009054906101000a900473ffffffffffffffffffffffffffffffffffffffff166009546040518363ffffffff1660e01b8152600401610cac92919061198d565b6020604051808303816000875af1158015610ccb573d6000803e3d6000fd5b505050506040513d601f19601f82011682018060405250810190610cef91906118f4565b50600560009054906101000a900473ffffffffffffffffffffffffffffffffffffffff1673ffffffffffffffffffffffffffffffffffffffff1663429957ca60095460006040518363ffffffff1660e01b8152600401610d50929190611a8e565b600060405180830381600087803b158015610d6a57600080fd5b505af1158015610d7e573d6000803e3d6000fd5b505050505b7f1d78ca6377547e2f5434a04066a4dcac7670fd77e146b686b06bf8fbc06fb435600b60009054906101000a900473ffffffffffffffffffffffffffffffffffffffff16600954604051610dd892919061198d565b60405180910390a1600754600a54610df09190611ab7565b600a8190555033600b60006101000a81548173ffffffffffffffffffffffffffffffffffffffff021916908373ffffffffffffffffffffffffffffffffffffffff16021790555060006009819055507f1c11e11b6ba23166c1d895fcbb2933eb498d77822e35178fd2bd77a79027f992336000604051610e71929190611b26565b60405180910390a1565b60075481565b606060018054610e90906116b9565b80601f0160208091040260200160405190810160405280929190818152602001828054610ebc906116b9565b8015610f095780601f10610ede57610100808354040283529160200191610f09565b820191906000526020600020905b815481529060010190602001808311610eec57829003601f168201915b5050505050905090565b6000610f20338484611009565b6001905092915050565b600560009054906101000a900473ffffffffffffffffffffffffffffffffffffffff1681565b600a5481565b6000600460008473ffffffffffffffffffffffffffffffffffffffff1673ffffffffffffffffffffffffffffffffffffffff16815260200190815260200160002060008373ffffffffffffffffffffffffffffffffffffffff1673ffffffffffffffffffffffffffffffffffffffff16815260200190815260200160002054905092915050565b600660009054906101000a900473ffffffffffffffffffffffffffffffffffffffff1681565b60095481565b80600360008573ffffffffffffffffffffffffffffffffffffffff1673ffffffffffffffffffffffffffffffffffffffff168152602001908152602001600020546110549190611785565b600360008573ffffffffffffffffffffffffffffffffffffffff1673ffffffffffffffffffffffffffffffffffffffff1681526020019081526020016000208190555080600360008473ffffffffffffffffffffffffffffffffffffffff1673ffffffffffffffffffffffffffffffffffffffff168152602001908152602001600020546110e29190611ab7565b600360008473ffffffffffffffffffffffffffffffffffffffff1673ffffffffffffffffffffffffffffffffffffffff168152602001908152602001600020819055508173ffffffffffffffffffffffffffffffffffffffff168373ffffffffffffffffffffffffffffffffffffffff167fddf252ad1be2c89b69c2b068fc378daa952ba7f163c4a11628f55a4df523b3ef836040516111829190611495565b60405180910390a3505050565b80600360008473ffffffffffffffffffffffffffffffffffffffff1673ffffffffffffffffffffffffffffffffffffffff168152602001908152602001600020546111da9190611ab7565b600360008473ffffffffffffffffffffffffffffffffffffffff1673ffffffffffffffffffffffffffffffffffffffff168152602001908152602001600020819055508060025461122b9190611ab7565b6002819055508173ffffffffffffffffffffffffffffffffffffffff16600073ffffffffffffffffffffffffffffffffffffffff167fddf252ad1be2c89b69c2b068fc378daa952ba7f163c4a11628f55a4df523b3ef8360405161128f9190611495565b60405180910390a35050565b600073ffffffffffffffffffffffffffffffffffffffff82169050919050565b60006112c68261129b565b9050919050565b6112d6816112bb565b82525050565b60006020820190506112f160008301846112cd565b92915050565b600081519050919050565b600082825260208201905092915050565b60005b83811015611331578082015181840152602081019050611316565b60008484015250505050565b6000601f19601f8301169050919050565b6000611359826112f7565b6113638185611302565b9350611373818560208601611313565b61137c8161133d565b840191505092915050565b600060208201905081810360008301526113a1818461134e565b905092915050565b600080fd5b6113b7816112bb565b81146113c257600080fd5b50565b6000813590506113d4816113ae565b92915050565b6000819050919050565b6113ed816113da565b81146113f857600080fd5b50565b60008135905061140a816113e4565b92915050565b60008060408385031215611427576114266113a9565b5b6000611435858286016113c5565b9250506020611446858286016113fb565b9150509250929050565b60008115159050919050565b61146581611450565b82525050565b6000602082019050611480600083018461145c565b92915050565b61148f816113da565b82525050565b60006020820190506114aa6000830184611486565b92915050565b6000806000606084860312156114c9576114c86113a9565b5b60006114d7868287016113c5565b93505060206114e8868287016113c5565b92505060406114f9868287016113fb565b9150509250925092565b600060ff82169050919050565b61151981611503565b82525050565b60006020820190506115346000830184611510565b92915050565b6000602082840312156115505761154f6113a9565b5b600061155e848285016113fb565b91505092915050565b60006020828403121561157d5761157c6113a9565b5b600061158b848285016113c5565b91505092915050565b6000819050919050565b60006115b96115b46115af8461129b565b611594565b61129b565b9050919050565b60006115cb8261159e565b9050919050565b60006115dd826115c0565b9050919050565b6115ed816115d2565b82525050565b600060208201905061160860008301846115e4565b92915050565b60008060408385031215611625576116246113a9565b5b6000611633858286016113c5565b9250506020611644858286016113c5565b9150509250929050565b6000611659826115c0565b9050919050565b6116698161164e565b82525050565b60006020820190506116846000830184611660565b92915050565b7f4e487b7100000000000000000000000000000000000000000000000000000000600052602260045260246000fd5b600060028204905060018216806116d157607f821691505b6020821081036116e4576116e361168a565b5b50919050565b7f6e6f7420617070726f7665640000000000000000000000000000000000000000600082015250565b6000611720600c83611302565b915061172b826116ea565b602082019050919050565b6000602082019050818103600083015261174f81611713565b9050919050565b7f4e487b7100000000000000000000000000000000000000000000000000000000600052601160045260246000fd5b6000611790826113da565b915061179b836113da565b92508282039050818111156117b3576117b2611756565b5b92915050565b7f61756374696f6e206d757374206265206f6e676f696e67000000000000000000600082015250565b60006117ef601783611302565b91506117fa826117b9565b602082019050919050565b6000602082019050818103600083015261181e816117e2565b9050919050565b7f6d75737420626520746f70206269640000000000000000000000000000000000600082015250565b600061185b600f83611302565b915061186682611825565b602082019050919050565b6000602082019050818103600083015261188a8161184e565b9050919050565b60006060820190506118a660008301866112cd565b6118b360208301856112cd565b6118c06040830184611486565b949350505050565b6118d181611450565b81146118dc57600080fd5b50565b6000815190506118ee816118c8565b92915050565b60006020828403121561190a576119096113a9565b5b6000611918848285016118df565b91505092915050565b7f6d7573742067657420746f6b656e730000000000000000000000000000000000600082015250565b6000611957600f83611302565b915061196282611921565b602082019050919050565b600060208201905081810360008301526119868161194a565b9050919050565b60006040820190506119a260008301856112cd565b6119af6020830184611486565b9392505050565b7f6d7573742073656e64206261636b20746f6b656e730000000000000000000000600082015250565b60006119ec601583611302565b91506119f7826119b6565b602082019050919050565b60006020820190508181036000830152611a1b816119df565b9050919050565b7f61756374696f6e206d757374206265206f766572000000000000000000000000600082015250565b6000611a58601483611302565b9150611a6382611a22565b602082019050919050565b60006020820190508181036000830152611a8781611a4b565b9050919050565b6000604082019050611aa36000830185611486565b611ab0602083018461145c565b9392505050565b6000611ac2826113da565b9150611acd836113da565b9250828201905080821115611ae557611ae4611756565b5b92915050565b6000819050919050565b6000611b10611b0b611b0684611aeb565b611594565b6113da565b9050919050565b611b2081611af5565b82525050565b6000604082019050611b3b60008301856112cd565b611b486020830184611b17565b939250505056fea26469706673582212206745505e646c9e51932949eb456b679e4b1caa26ef4b4fb987c4fc541658874c64736f6c63430008110033",
  "linkReferences": {},
  "deployedLinkReferences": {}
}