{
  "_format": "hh-sol-artifact-1",
  "contractName": "Auction",
  "sourceName": "contracts/Auction.sol",
  "abi": [
    {
      "inputs": [
        {
          "internalType": "address",
          "name": "_bidToken",
          "type": "address"
        },
        {
          "internalType": "uint256",
          "name": "_mintAmount",
          "type": "uint256"
        },
        {
          "internalType": "uint256",
          "name": "_auctionFrequency",
          "type": "uint256"
        },
        {
          "internalType": "address",
          "name": "_cfc",
          "type": "address"
        },
        {
          "internalType": "string",
          "name": "_name",
          "type": "string"
        },
        {
          "internalType": "string",
          "name": "_symbol",
          "type": "string"
        }
      ],
      "stateMutability": "nonpayable",
      "type": "constructor"
    },
    {
      "anonymous": false,
      "inputs": [
        {
          "indexed": true,
          "internalType": "address",
          "name": "_src",
          "type": "address"
        },
        {
          "indexed": true,
          "internalType": "address",
          "name": "_dst",
          "type": "address"
        },
        {
          "indexed": false,
          "internalType": "uint256",
          "name": "_amt",
          "type": "uint256"
        }
      ],
      "name": "Approval",
      "type": "event"
    },
    {
      "anonymous": false,
      "inputs": [
        {
          "indexed": false,
          "internalType": "address",
          "name": "_winner",
          "type": "address"
        },
        {
          "indexed": false,
          "internalType": "uint256",
          "name": "_amount",
          "type": "uint256"
        }
      ],
      "name": "AuctionClosed",
      "type": "event"
    },
    {
      "anonymous": false,
      "inputs": [
        {
          "indexed": false,
          "internalType": "uint256",
          "name": "_endDate",
          "type": "uint256"
        }
      ],
      "name": "NewAuctionStarted",
      "type": "event"
    },
    {
      "anonymous": false,
      "inputs": [
        {
          "indexed": false,
          "internalType": "address",
          "name": "_bidder",
          "type": "address"
        },
        {
          "indexed": false,
          "internalType": "uint256",
          "name": "_amount",
          "type": "uint256"
        }
      ],
      "name": "NewTopBid",
      "type": "event"
    },
    {
      "anonymous": false,
      "inputs": [
        {
          "indexed": true,
          "internalType": "address",
          "name": "_src",
          "type": "address"
        },
        {
          "indexed": true,
          "internalType": "address",
          "name": "_dst",
          "type": "address"
        },
        {
          "indexed": false,
          "internalType": "uint256",
          "name": "_amt",
          "type": "uint256"
        }
      ],
      "name": "Transfer",
      "type": "event"
    },
    {
      "inputs": [
        {
          "internalType": "address",
          "name": "_src",
          "type": "address"
        },
        {
          "internalType": "address",
          "name": "_dst",
          "type": "address"
        }
      ],
      "name": "allowance",
      "outputs": [
        {
          "internalType": "uint256",
          "name": "",
          "type": "uint256"
        }
      ],
      "stateMutability": "view",
      "type": "function"
    },
    {
      "inputs": [
        {
          "internalType": "address",
          "name": "_spender",
          "type": "address"
        },
        {
          "internalType": "uint256",
          "name": "_amount",
          "type": "uint256"
        }
      ],
      "name": "approve",
      "outputs": [
        {
          "internalType": "bool",
          "name": "",
          "type": "bool"
        }
      ],
      "stateMutability": "nonpayable",
      "type": "function"
    },
    {
      "inputs": [],
      "name": "auctionFrequency",
      "outputs": [
        {
          "internalType": "uint256",
          "name": "",
          "type": "uint256"
        }
      ],
      "stateMutability": "view",
      "type": "function"
    },
    {
      "inputs": [
        {
          "internalType": "address",
          "name": "_user",
          "type": "address"
        }
      ],
      "name": "balanceOf",
      "outputs": [
        {
          "internalType": "uint256",
          "name": "",
          "type": "uint256"
        }
      ],
      "stateMutability": "view",
      "type": "function"
    },
    {
      "inputs": [
        {
          "internalType": "uint256",
          "name": "_amount",
          "type": "uint256"
        }
      ],
      "name": "bid",
      "outputs": [],
      "stateMutability": "nonpayable",
      "type": "function"
    },
    {
      "inputs": [],
      "name": "bidToken",
      "outputs": [
        {
          "internalType": "contract IERC20",
          "name": "",
          "type": "address"
        }
      ],
      "stateMutability": "view",
      "type": "function"
    },
    {
      "inputs": [],
      "name": "charonFeeContract",
      "outputs": [
        {
          "internalType": "contract ICFC",
          "name": "",
          "type": "address"
        }
      ],
      "stateMutability": "view",
      "type": "function"
    },
    {
      "inputs": [],
      "name": "currentTopBid",
      "outputs": [
        {
          "internalType": "uint256",
          "name": "",
          "type": "uint256"
        }
      ],
      "stateMutability": "view",
      "type": "function"
    },
    {
      "inputs": [],
      "name": "decimals",
      "outputs": [
        {
          "internalType": "uint8",
          "name": "",
          "type": "uint8"
        }
      ],
      "stateMutability": "pure",
      "type": "function"
    },
    {
      "inputs": [],
      "name": "endDate",
      "outputs": [
        {
          "internalType": "uint256",
          "name": "",
          "type": "uint256"
        }
      ],
      "stateMutability": "view",
      "type": "function"
    },
    {
      "inputs": [],
      "name": "mintAmount",
      "outputs": [
        {
          "internalType": "uint256",
          "name": "",
          "type": "uint256"
        }
      ],
      "stateMutability": "view",
      "type": "function"
    },
    {
      "inputs": [],
      "name": "name",
      "outputs": [
        {
          "internalType": "string",
          "name": "",
          "type": "string"
        }
      ],
      "stateMutability": "view",
      "type": "function"
    },
    {
      "inputs": [],
      "name": "startNewAuction",
      "outputs": [],
      "stateMutability": "nonpayable",
      "type": "function"
    },
    {
      "inputs": [],
      "name": "symbol",
      "outputs": [
        {
          "internalType": "string",
          "name": "",
          "type": "string"
        }
      ],
      "stateMutability": "view",
      "type": "function"
    },
    {
      "inputs": [],
      "name": "topBidder",
      "outputs": [
        {
          "internalType": "address",
          "name": "",
          "type": "address"
        }
      ],
      "stateMutability": "view",
      "type": "function"
    },
    {
      "inputs": [],
      "name": "totalSupply",
      "outputs": [
        {
          "internalType": "uint256",
          "name": "",
          "type": "uint256"
        }
      ],
      "stateMutability": "view",
      "type": "function"
    },
    {
      "inputs": [
        {
          "internalType": "address",
          "name": "_to",
          "type": "address"
        },
        {
          "internalType": "uint256",
          "name": "_amount",
          "type": "uint256"
        }
      ],
      "name": "transfer",
      "outputs": [
        {
          "internalType": "bool",
          "name": "",
          "type": "bool"
        }
      ],
      "stateMutability": "nonpayable",
      "type": "function"
    },
    {
      "inputs": [
        {
          "internalType": "address",
          "name": "_from",
          "type": "address"
        },
        {
          "internalType": "address",
          "name": "_to",
          "type": "address"
        },
        {
          "internalType": "uint256",
          "name": "_amount",
          "type": "uint256"
        }
      ],
      "name": "transferFrom",
      "outputs": [
        {
          "internalType": "bool",
          "name": "",
          "type": "bool"
        }
      ],
      "stateMutability": "nonpayable",
      "type": "function"
    }
  ],
  "bytecode": "0x60806040523480156200001157600080fd5b506040516200249338038062002493833981810160405281019062000037919062000466565b818181600090816200004a919062000781565b5080600190816200005c919062000781565b50505085600660006101000a81548173ffffffffffffffffffffffffffffffffffffffff021916908373ffffffffffffffffffffffffffffffffffffffff160217905550846008819055508360078190555082600560006101000a81548173ffffffffffffffffffffffffffffffffffffffff021916908373ffffffffffffffffffffffffffffffffffffffff1602179055508342620000fd919062000897565b600a819055506200011533866200012160201b60201c565b50505050505062000900565b80600360008473ffffffffffffffffffffffffffffffffffffffff1673ffffffffffffffffffffffffffffffffffffffff168152602001908152602001600020546200016e919062000897565b600360008473ffffffffffffffffffffffffffffffffffffffff1673ffffffffffffffffffffffffffffffffffffffff1681526020019081526020016000208190555080600254620001c1919062000897565b6002819055508173ffffffffffffffffffffffffffffffffffffffff16600073ffffffffffffffffffffffffffffffffffffffff167fddf252ad1be2c89b69c2b068fc378daa952ba7f163c4a11628f55a4df523b3ef83604051620002279190620008e3565b60405180910390a35050565b6000604051905090565b600080fd5b600080fd5b600073ffffffffffffffffffffffffffffffffffffffff82169050919050565b6000620002748262000247565b9050919050565b620002868162000267565b81146200029257600080fd5b50565b600081519050620002a6816200027b565b92915050565b6000819050919050565b620002c181620002ac565b8114620002cd57600080fd5b50565b600081519050620002e181620002b6565b92915050565b600080fd5b600080fd5b6000601f19601f8301169050919050565b7f4e487b7100000000000000000000000000000000000000000000000000000000600052604160045260246000fd5b6200033c82620002f1565b810181811067ffffffffffffffff821117156200035e576200035d62000302565b5b80604052505050565b60006200037362000233565b905062000381828262000331565b919050565b600067ffffffffffffffff821115620003a457620003a362000302565b5b620003af82620002f1565b9050602081019050919050565b60005b83811015620003dc578082015181840152602081019050620003bf565b60008484015250505050565b6000620003ff620003f98462000386565b62000367565b9050828152602081018484840111156200041e576200041d620002ec565b5b6200042b848285620003bc565b509392505050565b600082601f8301126200044b576200044a620002e7565b5b81516200045d848260208601620003e8565b91505092915050565b60008060008060008060c087890312156200048657620004856200023d565b5b60006200049689828a0162000295565b9650506020620004a989828a01620002d0565b9550506040620004bc89828a01620002d0565b9450506060620004cf89828a0162000295565b935050608087015167ffffffffffffffff811115620004f357620004f262000242565b5b6200050189828a0162000433565b92505060a087015167ffffffffffffffff81111562000525576200052462000242565b5b6200053389828a0162000433565b9150509295509295509295565b600081519050919050565b7f4e487b7100000000000000000000000000000000000000000000000000000000600052602260045260246000fd5b600060028204905060018216806200059357607f821691505b602082108103620005a957620005a86200054b565b5b50919050565b60008190508160005260206000209050919050565b60006020601f8301049050919050565b600082821b905092915050565b600060088302620006137fffffffffffffffffffffffffffffffffffffffffffffffffffffffffffffffff82620005d4565b6200061f8683620005d4565b95508019841693508086168417925050509392505050565b6000819050919050565b6000620006626200065c6200065684620002ac565b62000637565b620002ac565b9050919050565b6000819050919050565b6200067e8362000641565b620006966200068d8262000669565b848454620005e1565b825550505050565b600090565b620006ad6200069e565b620006ba81848462000673565b505050565b5b81811015620006e257620006d6600082620006a3565b600181019050620006c0565b5050565b601f8211156200073157620006fb81620005af565b6200070684620005c4565b8101602085101562000716578190505b6200072e6200072585620005c4565b830182620006bf565b50505b505050565b600082821c905092915050565b6000620007566000198460080262000736565b1980831691505092915050565b600062000771838362000743565b9150826002028217905092915050565b6200078c8262000540565b67ffffffffffffffff811115620007a857620007a762000302565b5b620007b482546200057a565b620007c1828285620006e6565b600060209050601f831160018114620007f95760008415620007e4578287015190505b620007f0858262000763565b86555062000860565b601f1984166200080986620005af565b60005b8281101562000833578489015182556001820191506020850194506020810190506200080c565b868310156200085357848901516200084f601f89168262000743565b8355505b6001600288020188555050505b505050505050565b7f4e487b7100000000000000000000000000000000000000000000000000000000600052601160045260246000fd5b6000620008a482620002ac565b9150620008b183620002ac565b9250828201905080821115620008cc57620008cb62000868565b5b92915050565b620008dd81620002ac565b82525050565b6000602082019050620008fa6000830184620008d2565b92915050565b611b8380620009106000396000f3fe608060405234801561001057600080fd5b50600436106101165760003560e01c806379946b3e116100a2578063afcfd22b11610071578063afcfd22b146102d3578063c24a0f8b146102f1578063dd62ed3e1461030f578063dfafd4fd1461033f578063fdd68ef81461035d57610116565b806379946b3e1461025d5780638369d9e21461026757806395d89b4114610285578063a9059cbb146102a357610116565b806323b872dd116100e957806323b872dd146101a5578063313ce567146101d5578063454a2ab3146101f35780635a2bcc181461020f57806370a082311461022d57610116565b806301333f061461011b57806306fdde0314610139578063095ea7b31461015757806318160ddd14610187575b600080fd5b61012361037b565b60405161013091906112da565b60405180910390f35b6101416103a1565b60405161014e9190611385565b60405180910390f35b610171600480360381019061016c919061140e565b610433565b60405161017e9190611469565b60405180910390f35b61018f610525565b60405161019c9190611493565b60405180910390f35b6101bf60048036038101906101ba91906114ae565b61052f565b6040516101cc9190611469565b60405180910390f35b6101dd610859565b6040516101ea919061151d565b60405180910390f35b61020d60048036038101906102089190611538565b610862565b005b610217610b5e565b6040516102249190611493565b60405180910390f35b61024760048036038101906102429190611565565b610b64565b6040516102549190611493565b60405180910390f35b610265610bad565b005b61026f610e79565b60405161027c9190611493565b60405180910390f35b61028d610e7f565b60405161029a9190611385565b60405180910390f35b6102bd60048036038101906102b8919061140e565b610f11565b6040516102ca9190611469565b60405180910390f35b6102db610f28565b6040516102e891906115f1565b60405180910390f35b6102f9610f4e565b6040516103069190611493565b60405180910390f35b6103296004803603810190610324919061160c565b610f54565b6040516103369190611493565b60405180910390f35b610347610fdb565b604051610354919061166d565b60405180910390f35b610365611001565b6040516103729190611493565b60405180910390f35b600b60009054906101000a900473ffffffffffffffffffffffffffffffffffffffff1681565b6060600080546103b0906116b7565b80601f01602080910402602001604051908101604052809291908181526020018280546103dc906116b7565b80156104295780601f106103fe57610100808354040283529160200191610429565b820191906000526020600020905b81548152906001019060200180831161040c57829003601f168201915b5050505050905090565b600081600460003373ffffffffffffffffffffffffffffffffffffffff1673ffffffffffffffffffffffffffffffffffffffff16815260200190815260200160002060008573ffffffffffffffffffffffffffffffffffffffff1673ffffffffffffffffffffffffffffffffffffffff168152602001908152602001600020819055508273ffffffffffffffffffffffffffffffffffffffff163373ffffffffffffffffffffffffffffffffffffffff167f8c5be1e5ebec7d5bd14f71427d1e84f3dd0314c0f7b2291e5b200ac8c7c3b925846040516105139190611493565b60405180910390a36001905092915050565b6000600254905090565b60008373ffffffffffffffffffffffffffffffffffffffff163373ffffffffffffffffffffffffffffffffffffffff1614806105e75750600460008573ffffffffffffffffffffffffffffffffffffffff1673ffffffffffffffffffffffffffffffffffffffff16815260200190815260200160002060003373ffffffffffffffffffffffffffffffffffffffff1673ffffffffffffffffffffffffffffffffffffffff168152602001908152602001600020548211155b610626576040517f08c379a000000000000000000000000000000000000000000000000000000000815260040161061d90611734565b60405180910390fd5b610631848484611007565b8373ffffffffffffffffffffffffffffffffffffffff163373ffffffffffffffffffffffffffffffffffffffff161461084e5781600460008673ffffffffffffffffffffffffffffffffffffffff1673ffffffffffffffffffffffffffffffffffffffff16815260200190815260200160002060003373ffffffffffffffffffffffffffffffffffffffff1673ffffffffffffffffffffffffffffffffffffffff168152602001908152602001600020546106ec9190611783565b600460008673ffffffffffffffffffffffffffffffffffffffff1673ffffffffffffffffffffffffffffffffffffffff16815260200190815260200160002060003373ffffffffffffffffffffffffffffffffffffffff1673ffffffffffffffffffffffffffffffffffffffff168152602001908152602001600020819055503373ffffffffffffffffffffffffffffffffffffffff168473ffffffffffffffffffffffffffffffffffffffff167f8c5be1e5ebec7d5bd14f71427d1e84f3dd0314c0f7b2291e5b200ac8c7c3b925600460008873ffffffffffffffffffffffffffffffffffffffff1673ffffffffffffffffffffffffffffffffffffffff16815260200190815260200160002060003373ffffffffffffffffffffffffffffffffffffffff1673ffffffffffffffffffffffffffffffffffffffff168152602001908152602001600020546040516108459190611493565b60405180910390a35b600190509392505050565b60006012905090565b600a5442106108a6576040517f08c379a000000000000000000000000000000000000000000000000000000000815260040161089d90611803565b60405180910390fd5b60095481116108ea576040517f08c379a00000000000000000000000000000000000000000000000000000000081526004016108e19061186f565b60405180910390fd5b600660009054906101000a900473ffffffffffffffffffffffffffffffffffffffff1673ffffffffffffffffffffffffffffffffffffffff166323b872dd3330846040518463ffffffff1660e01b81526004016109499392919061188f565b6020604051808303816000875af1158015610968573d6000803e3d6000fd5b505050506040513d601f19601f8201168201806040525081019061098c91906118f2565b6109cb576040517f08c379a00000000000000000000000000000000000000000000000000000000081526004016109c29061196b565b60405180910390fd5b60006009541115610ada57600660009054906101000a900473ffffffffffffffffffffffffffffffffffffffff1673ffffffffffffffffffffffffffffffffffffffff1663a9059cbb600b60009054906101000a900473ffffffffffffffffffffffffffffffffffffffff166009546040518363ffffffff1660e01b8152600401610a5792919061198b565b6020604051808303816000875af1158015610a76573d6000803e3d6000fd5b505050506040513d601f19601f82011682018060405250810190610a9a91906118f2565b610ad9576040517f08c379a0000000000000000000000000000000000000000000000000000000008152600401610ad090611a00565b60405180910390fd5b5b33600b60006101000a81548173ffffffffffffffffffffffffffffffffffffffff021916908373ffffffffffffffffffffffffffffffffffffffff160217905550806009819055507f1c11e11b6ba23166c1d895fcbb2933eb498d77822e35178fd2bd77a79027f9923382604051610b5392919061198b565b60405180910390a150565b60085481565b6000600360008373ffffffffffffffffffffffffffffffffffffffff1673ffffffffffffffffffffffffffffffffffffffff168152602001908152602001600020549050919050565b600a54421015610bf2576040517f08c379a0000000000000000000000000000000000000000000000000000000008152600401610be990611a6c565b60405180910390fd5b610c20600b60009054906101000a900473ffffffffffffffffffffffffffffffffffffffff1660085461118d565b60006009541115610d8357600660009054906101000a900473ffffffffffffffffffffffffffffffffffffffff1673ffffffffffffffffffffffffffffffffffffffff1663095ea7b3600560009054906101000a900473ffffffffffffffffffffffffffffffffffffffff166009546040518363ffffffff1660e01b8152600401610cac92919061198b565b6020604051808303816000875af1158015610ccb573d6000803e3d6000fd5b505050506040513d601f19601f82011682018060405250810190610cef91906118f2565b50600560009054906101000a900473ffffffffffffffffffffffffffffffffffffffff1673ffffffffffffffffffffffffffffffffffffffff1663429957ca60095460006040518363ffffffff1660e01b8152600401610d50929190611a8c565b600060405180830381600087803b158015610d6a57600080fd5b505af1158015610d7e573d6000803e3d6000fd5b505050505b7f1d78ca6377547e2f5434a04066a4dcac7670fd77e146b686b06bf8fbc06fb435600b60009054906101000a900473ffffffffffffffffffffffffffffffffffffffff16600954604051610dd892919061198b565b60405180910390a160075442610dee9190611ab5565b600a8190555033600b60006101000a81548173ffffffffffffffffffffffffffffffffffffffff021916908373ffffffffffffffffffffffffffffffffffffffff16021790555060006009819055507f1c11e11b6ba23166c1d895fcbb2933eb498d77822e35178fd2bd77a79027f992336000604051610e6f929190611b24565b60405180910390a1565b60075481565b606060018054610e8e906116b7565b80601f0160208091040260200160405190810160405280929190818152602001828054610eba906116b7565b8015610f075780601f10610edc57610100808354040283529160200191610f07565b820191906000526020600020905b815481529060010190602001808311610eea57829003601f168201915b5050505050905090565b6000610f1e338484611007565b6001905092915050565b600560009054906101000a900473ffffffffffffffffffffffffffffffffffffffff1681565b600a5481565b6000600460008473ffffffffffffffffffffffffffffffffffffffff1673ffffffffffffffffffffffffffffffffffffffff16815260200190815260200160002060008373ffffffffffffffffffffffffffffffffffffffff1673ffffffffffffffffffffffffffffffffffffffff16815260200190815260200160002054905092915050565b600660009054906101000a900473ffffffffffffffffffffffffffffffffffffffff1681565b60095481565b80600360008573ffffffffffffffffffffffffffffffffffffffff1673ffffffffffffffffffffffffffffffffffffffff168152602001908152602001600020546110529190611783565b600360008573ffffffffffffffffffffffffffffffffffffffff1673ffffffffffffffffffffffffffffffffffffffff1681526020019081526020016000208190555080600360008473ffffffffffffffffffffffffffffffffffffffff1673ffffffffffffffffffffffffffffffffffffffff168152602001908152602001600020546110e09190611ab5565b600360008473ffffffffffffffffffffffffffffffffffffffff1673ffffffffffffffffffffffffffffffffffffffff168152602001908152602001600020819055508173ffffffffffffffffffffffffffffffffffffffff168373ffffffffffffffffffffffffffffffffffffffff167fddf252ad1be2c89b69c2b068fc378daa952ba7f163c4a11628f55a4df523b3ef836040516111809190611493565b60405180910390a3505050565b80600360008473ffffffffffffffffffffffffffffffffffffffff1673ffffffffffffffffffffffffffffffffffffffff168152602001908152602001600020546111d89190611ab5565b600360008473ffffffffffffffffffffffffffffffffffffffff1673ffffffffffffffffffffffffffffffffffffffff16815260200190815260200160002081905550806002546112299190611ab5565b6002819055508173ffffffffffffffffffffffffffffffffffffffff16600073ffffffffffffffffffffffffffffffffffffffff167fddf252ad1be2c89b69c2b068fc378daa952ba7f163c4a11628f55a4df523b3ef8360405161128d9190611493565b60405180910390a35050565b600073ffffffffffffffffffffffffffffffffffffffff82169050919050565b60006112c482611299565b9050919050565b6112d4816112b9565b82525050565b60006020820190506112ef60008301846112cb565b92915050565b600081519050919050565b600082825260208201905092915050565b60005b8381101561132f578082015181840152602081019050611314565b60008484015250505050565b6000601f19601f8301169050919050565b6000611357826112f5565b6113618185611300565b9350611371818560208601611311565b61137a8161133b565b840191505092915050565b6000602082019050818103600083015261139f818461134c565b905092915050565b600080fd5b6113b5816112b9565b81146113c057600080fd5b50565b6000813590506113d2816113ac565b92915050565b6000819050919050565b6113eb816113d8565b81146113f657600080fd5b50565b600081359050611408816113e2565b92915050565b60008060408385031215611425576114246113a7565b5b6000611433858286016113c3565b9250506020611444858286016113f9565b9150509250929050565b60008115159050919050565b6114638161144e565b82525050565b600060208201905061147e600083018461145a565b92915050565b61148d816113d8565b82525050565b60006020820190506114a86000830184611484565b92915050565b6000806000606084860312156114c7576114c66113a7565b5b60006114d5868287016113c3565b93505060206114e6868287016113c3565b92505060406114f7868287016113f9565b9150509250925092565b600060ff82169050919050565b61151781611501565b82525050565b6000602082019050611532600083018461150e565b92915050565b60006020828403121561154e5761154d6113a7565b5b600061155c848285016113f9565b91505092915050565b60006020828403121561157b5761157a6113a7565b5b6000611589848285016113c3565b91505092915050565b6000819050919050565b60006115b76115b26115ad84611299565b611592565b611299565b9050919050565b60006115c98261159c565b9050919050565b60006115db826115be565b9050919050565b6115eb816115d0565b82525050565b600060208201905061160660008301846115e2565b92915050565b60008060408385031215611623576116226113a7565b5b6000611631858286016113c3565b9250506020611642858286016113c3565b9150509250929050565b6000611657826115be565b9050919050565b6116678161164c565b82525050565b6000602082019050611682600083018461165e565b92915050565b7f4e487b7100000000000000000000000000000000000000000000000000000000600052602260045260246000fd5b600060028204905060018216806116cf57607f821691505b6020821081036116e2576116e1611688565b5b50919050565b7f6e6f7420617070726f7665640000000000000000000000000000000000000000600082015250565b600061171e600c83611300565b9150611729826116e8565b602082019050919050565b6000602082019050818103600083015261174d81611711565b9050919050565b7f4e487b7100000000000000000000000000000000000000000000000000000000600052601160045260246000fd5b600061178e826113d8565b9150611799836113d8565b92508282039050818111156117b1576117b0611754565b5b92915050565b7f61756374696f6e206d757374206265206f6e676f696e67000000000000000000600082015250565b60006117ed601783611300565b91506117f8826117b7565b602082019050919050565b6000602082019050818103600083015261181c816117e0565b9050919050565b7f6d75737420626520746f70206269640000000000000000000000000000000000600082015250565b6000611859600f83611300565b915061186482611823565b602082019050919050565b600060208201905081810360008301526118888161184c565b9050919050565b60006060820190506118a460008301866112cb565b6118b160208301856112cb565b6118be6040830184611484565b949350505050565b6118cf8161144e565b81146118da57600080fd5b50565b6000815190506118ec816118c6565b92915050565b600060208284031215611908576119076113a7565b5b6000611916848285016118dd565b91505092915050565b7f6d7573742067657420746f6b656e730000000000000000000000000000000000600082015250565b6000611955600f83611300565b91506119608261191f565b602082019050919050565b6000602082019050818103600083015261198481611948565b9050919050565b60006040820190506119a060008301856112cb565b6119ad6020830184611484565b9392505050565b7f6d7573742073656e64206261636b20746f6b656e730000000000000000000000600082015250565b60006119ea601583611300565b91506119f5826119b4565b602082019050919050565b60006020820190508181036000830152611a19816119dd565b9050919050565b7f61756374696f6e206d757374206265206f766572000000000000000000000000600082015250565b6000611a56601483611300565b9150611a6182611a20565b602082019050919050565b60006020820190508181036000830152611a8581611a49565b9050919050565b6000604082019050611aa16000830185611484565b611aae602083018461145a565b9392505050565b6000611ac0826113d8565b9150611acb836113d8565b9250828201905080821115611ae357611ae2611754565b5b92915050565b6000819050919050565b6000611b0e611b09611b0484611ae9565b611592565b6113d8565b9050919050565b611b1e81611af3565b82525050565b6000604082019050611b3960008301856112cb565b611b466020830184611b15565b939250505056fea26469706673582212202d8f323a6fe81cb61f39cfe59c29bed76751405094fb848e2ca10fa70777677d64736f6c63430008110033",
  "linkReferences": {},
  "deployedLinkReferences": {}
}